:020000040800F2
:10000000D8070020C91E00088111000883110008CC
:10001000871100088B1100088F11000800000000F4
:100020000000000000000000000000009311000824
:1000300095110008000000009711000899110008B0
:10004000E31E0008E31E0008E31E0008E31E00088C
:10005000E31E0008E31E0008E31E0008E31E00087C
:10006000E31E0008E31E0008E31E0008E31E00086C
:10007000E31E0008E31E0008E31E0008E31E00085C
:10008000E31E0008E31E0008E31E0008E31E00084C
:10009000E31E0008E31E0008E31E0008E31E00083C
:1000A000E31E0008E31E0008E31E0008E31E00082C
:1000B000E31E000859170008E31E0008E31E0008AD
:1000C000E31E0008E31E0008E31E0008E31E00080C
:1000D000E31E0008E31E00083F1E0008E31E0008A0
:1000E000E31E0008E31E0008E31E0008E31E0008EC
:1000F000E31E0008E31E0008E31E0008E31E0008DC
:10010000E31E0008E31E0008E31E0008E31E0008CB
:10011000E31E0008E31E000849190008A91500089D
:10012000E31E0008E31E0008E31E0008E31E0008AB
:10013000E31E0008E31E0008E31E0008E31E00089B
:10014000E31E0008E31E0008E31E0008E31E00088B
:10015000E31E0008E31E0008E31E0008E31E00087B
:10016000E31E0008E31E0008E31E0008E31E00086B
:10017000E31E0008E31E0008E31E0008E31E00085B
:10018000E31E0008E31E000800F002F800F041F84A
:100190000AA090E8000C82448344AAF10107DA45E2
:1001A00001D100F036F8AFF2090EBAE80F0013F0F3
:1001B000010F18BFFB1A43F001031847FC3E000073
:1001C0001C3F0000103A24BF78C878C1FAD8520703
:1001D00024BF30C830C144BF04680C6070470000C1
:1001E0000023002400250026103A28BF78C1FBD840
:1001F000520728BF30C148BF0B607047642903F025
:100200005B86002070471FB503F050FF1FBD10B57F
:1002100010BD03F019FF1146FFF7F5FF00F019FBC1
:1002200003F037FF03B4FFF7F2FF03BC01F0A4FDB6
:100230000020F7490860F749C1F8B802F64908609C
:1002400048608860C86070470021F14A1160F14A37
:10025000C2F8B812414201EB8101EF4A11604142FC
:1002600001EB81015160414201EB8101916041420A
:1002700001EB8101D160704700BF01680029FCD10A
:1002800070470021E24A11600121E24AC2F8B81227
:10029000414201EB8101E04A116000EB80015160B5
:1002A000414201EB8101916000EB8001D160704718
:1002B00010B5044602E0FA2001F03EFD201EA4F134
:1002C0000104F8D110BD0021D14A1160D14AC2F811
:1002D000B81200EB8001D04A1160414201EB81016C
:1002E000516000EB80019160414201EB8101D160DE
:1002F000704710B5044600BF20680028FCD1FA20E2
:1003000001F01AFDFA2001F017FD10BD0021C04ACE
:100310001160C04AC2F8B81200EB8001BE4A1160F9
:1003200000EB8001516000EB8001916000EB8001E7
:10033000D16070472DE9F05F05460C4616461F4612
:10034000DDE90CABDDE90A890120B1490860002034
:10035000B049C1F8B802002D03DA401EAF49088049
:1003600009E0002D03DD0120AC49088003E015B948
:100370000020AA490880002C04DA4FF0FF30A7497A
:10038000488009E0002C03DD0120A449488003E0F7
:1003900014B90020A14948800020A1490870042018
:1003A000A04908709D484088642110FB01F09A49DB
:1003B000086101F11000FFF75FFF00209849087005
:1003C000032098490870954840884FF4C87110FB85
:1003D00001F09149086101F11000FFF74DFF002085
:1003E0008F49087002208F4908708C4840884FF46C
:1003F000C87110FB01F08849086101F11000FFF796
:100400003BFF002086490870012086490870834818
:10041000B0F902004FF4E16101FB10407E49086130
:1004200001F11000FFF728FF00207D49087002202D
:100430007C490870794840884FF4C87110FB01F07E
:100440007549086101F11000FFF716FF002074499B
:100450000870032073490870704840884FF4C871D1
:1004600010FB01F06C49086101F11000FFF704FF77
:1004700000206B49087004206A490870674840886A
:10048000642110FB01F06449086101F11000FFF7DD
:10049000F3FE0020624908700420624908706FF082
:1004A00063005D49486101F11400FFF7E5FE00209B
:1004B0005B49087003205B4908705B4856494861F6
:1004C00001F11400FFF7D8FE002055490870022002
:1004D0005449087054485049486101F11400FFF72D
:1004E000CBFE00204E49087001204E49087006F6E8
:1004F00054304949486101F11400FFF7BDFE002066
:1005000047490870022047490870484842494861F5
:1005100001F11400FFF7B0FE0020414908700320EC
:100520004049087041483C49486101F11400FFF717
:10053000A3FE00203A49087004203A4908703A485E
:100540003549486101F11400FFF796FEFA2001F0E9
:10055000F3FBFA2001F0F0FB002031490870022083
:100560003049087007EB87002B49886101F11800BA
:10057000FFF782FE2848C0F810801030FFF77CFE9D
:100580002B48007802281BDC002025490870012038
:10059000244908702048C0F81490C82001F0CCFB12
:1005A000C82001F0C9FBC82001F0C6FBC82001F03B
:1005B000C3FB1948C0F810A00BEB8B0016498861EB
:1005C000BDE8F09F10B503460C46012010490860B5
:1005D00000201049C1F8B8021149087002201149E1
:1005E000087003EB83000C49886101F11800FFF7E4
:1005F00043FE094804611030FFF73EFE02EB820023
:100600000549886101F11800FFF736FE10BD0000B2
:10061000B402424200004242780000202400002040
:100620002A0000202800002070FEFFFFE0FCFFFFF2
:10063000360000201FB5F748C078D0B141F29412BF
:100640004FF47A71F448FFF7BDFFF44841F23011DE
:1006500042F6E832F04BC833CDE90032CDE9021062
:10066000ED4B524249420020FFF764FE0020E94969
:10067000C8701FBD1FB5E7480079C0B141F29412A0
:100680004FF47A71E448FFF79DFFE448002142F6F9
:100690001452E14BC833CDE90032CDE90210DE4BF4
:1006A00052420846FFF746FE0020DA4908711FBD96
:1006B0001FB5D8484079C8B141F294124FF47A710D
:1006C000D548FFF77FFFD548D54942F6E832D24BEF
:1006D000C833CDE90032CDE90210CF4B5242494236
:1006E0000020FFF727FE0020CA4948711FBD10B542
:1006F000CC48CD490978405C312807D1CB480078F7
:10070000401CCA490870FFF7D3FF1AE0C548C64924
:100710000978405C352807D1C4480078401CC3499B
:100720000870FFF7A7FF0CE0BE48BF490978405C9E
:10073000332806D1BD480078401CBC490870FFF73B
:1007400079FFB9480078401EB749087010BD1FB541
:10075000B0480078D8B14FF47A624FF47571AE4862
:10076000FFF730FF4FF4E67041F2121142F6A46237
:10077000A94BDC33CDE90032CDE90210AC4B52423B
:1007800049420020FFF7D6FD0020A24908701FBD96
:100790001FB5A0484078C8B14FF47A624FF4757124
:1007A0009D48FFF70FFF4FF4E670002142F6A46268
:1007B000994BDC33CDE90032CDE902109C4B52421B
:1007C0000846FFF7B7FD0020924948701FBD1FB5CE
:1007D00090488078D8B14FF47A624FF475718E48A2
:1007E000FFF7F0FE4FF4E6708D49323142F6A46215
:1007F000894BDC33CDE90032CDE902108C4B5242FB
:1008000049420020FFF796FD0020824988701FBDF5
:1008100010B5844884490978405C322802D1FFF73A
:10082000D6FF10E07F4880490978405C362802D125
:10083000FFF7AEFF07E07B487B490978405C34282E
:1008400001D1FFF784FF78480078401C7649087092
:1008500010BD01206F49087048708870C870087119
:1008600048718871C871087248728872C8724FF4F2
:10087000A06001F049FBA82001F0FCF94FF41650EC
:1008800001F088FA01F04EF900F0BCFE01F0B4F975
:10089000532140F2E73000F089FD2921A72000F024
:1008A00005FF2921532000F02CFF42F2CF016320E5
:1008B00000F04FFE00205F4908605F49C1F8B802B0
:1008C0005E490860C82001F037FA25E35C480078EB
:1008D0000C287BD2DFE800F07A0642C1FDFCFBFA6F
:1008E000F9F8F7F637E057480078032827DA564832
:1008F0000088B0F57A6F11DB53484088B0F57A6F05
:100900000CDB50480078401C4E4908704FF4C8700A
:10091000FFF79AFC4D48FFF7AFFC1CE03D48807A9A
:1009200040B142F6825049494861494888610020F7
:10093000384988724FF47A60FFF786FC0BE0FFF7C6
:1009400077FCFA2001F0F8F9FA2001F0F5F902201D
:100950003B49087000E0C6E700BFDDE27AE03948B5
:100960004078062845DA38480088B0F57A6F3BDBD6
:1009700035484088B0F57A6F36DB32484078401C05
:1009800030494870274828490978405C32280BD004
:10099000244825490978405C342805D0214822495B
:1009A0000978405C362812D1FFF742FCFA2001F0AA
:1009B000C3F9FA2001F0C0F9FFF72AFF4FF4C8701D
:1009C000FFF7A4FC2148FFF757FC43E0A2E21648DA
:1009D0000078401C144908704FF4C870FFF796FC6B
:1009E0001A48FFF749FC35E04FF4FA50FFF78EFC48
:1009F00030E0FFF71DFCFA2001F09EF9FA2001F02B
:100A00009BF909480078401E0749087003200C49EB
:100A1000087020E09400002050FBFFFFCCF7FFFFA0
:100A200002EFFFFF3A0000204000002036000020C7
:100A300044F3FFFFB40242420000424298024142A6
:100A40002C000020A00000202E00002078000020B4
:100A5000C8CEFFFF83E700BF5EE270E0FE4880780B
:100A6000062855DAFD480088B0F57A6F4BDBFB4865
:100A70004088B0F57A6F46DBF7488078401CF6492D
:100A80008870F748F7490978405C31280BD0F44862
:100A9000F4490978405C352805D0F148F1490978D6
:100AA000405C33281ED1FFF7C3FBFA2001F044F964
:100AB000FA2001F041F9FFF71AFEE748807806288E
:100AC0003DD007E01EE2FAE1F2E19DE14DE1EFE009
:100AD00093E037E04FF4C870FFF7B6FBE248FFF74A
:100AE000CBFB2CE0DF480078401EDE490870DA4876
:100AF0008078062823D04FF4C870FFF7A5FBDA48AA
:100B0000FFF7BAFB1BE04FF4FA50FFF79DFB16E02E
:100B1000FFF78EFBFA2001F00FF9FA2001F00CF933
:100B20004FF44870FFF7F2FBCF48FFF7E2FB41F2CA
:100B30007070CD4988610420CC49087000E08DE7D1
:100B400000BFE9E10020CA4908700720C9490870C0
:100B5000C820FFF7B8FBC448FFF78EFB0020C4494C
:100B600008700520C3490870C820FFF7ACFBBE48D9
:100B7000FFF782FB0020BE4908700320BD490870C2
:100B80004FF4C870FFF79FFBB748FFF775FB0020D5
:100B9000B74908700120B749087042F21070FFF79A
:100BA00092FBB148FFF768FB0020B14908700320B1
:100BB000B04908704FF4C870FFF785FBAA48FFF7EB
:100BC0005BFB0020AA4908700520AA490870C820CC
:100BD000FFF779FBA448FFF74FFB0020A4490870FA
:100BE0000720A4490870C820FFF76DFB9E48FFF757
:100BF00080FB05209D4908708CE100209C4908700D
:100C000007209C490870C820FFF780FB9648FFF733
:100C100033FB002096490870052096490870C820CB
:100C2000FFF774FB9048FFF727FB002090490870FE
:100C30000320904908704FF4C870FFF767FB8A489B
:100C4000FFF71AFB00208A490870012089490870C3
:100C50004FF4FA50FFF75AFB8348FFF70DFB0020D3
:100C6000834908700320834908704FF4C870FFF768
:100C70004DFB7D48FFF700FB00207D4908700520F3
:100C80007C490870C820FFF741FB7748FFF7F4FA6A
:100C9000002077490870072076490870C820FFF7C0
:100CA00035FB7148FFF725FB06207049087031E1DC
:100CB00000206F49087007206E490870C820FFF7B0
:100CC00002FB6948FFF7D8FA00206949087005203F
:100CD00068490870C820FFF7F6FA6348FFF7CCFAB6
:100CE0000020634908700320624908704FF4C870FF
:100CF000FFF7E9FA5C48FFF7BFFA00205C4908708B
:100D000001205C4908704FF4FA50FFF7DCFA5648AE
:100D1000FFF7B2FA002056490870032055490870C1
:100D200020E04FF47A60FFF7CEFA4C480088B0F527
:100D30007A6F17DB49484088B0F57A6F12DBFFF70E
:100D400077FAFA2000F0F8FFFA2000F0F5FF4FF4F0
:100D5000AF60FFF779FA4448FFF78EFA072043495E
:100D6000087000E0DDE700BFD6E04AE03B480088BD
:100D7000B0F57A6F41DB39484088B0F57A6F3CDBDB
:100D8000FFF756FAFA2000F0D7FFFA2000F0D4FF60
:100D90000120394908603948007A18B34FF40770C8
:100DA0003749486300208863C86308641920FFF747
:100DB0007FFA0020324948638863FA2000F0BCFFC4
:100DC00000202F4948634FF4FA708863FA2000F03E
:100DD000B3FFFA2000F0B0FF002029494863886380
:100DE000264908724FF44870FFF72EFA1E48FFF7A5
:100DF00043FA08201D49087004E04FF4FA50FFF749
:100E000023FAB3E700BF87E04FE014480088B0F54D
:100E10007A6F46DB11484088B0F57A6F41DBFFF707
:100E200007FAFA2000F088FFFA2000F085FF012081
:100E3000114908601148407A40B3002010494863C6
:100E400088634FF40770C863002008641920FFF717
:100E50002FFA00200A4915E0A00000202E000020F3
:100E60003A00002040000020780000202C000020E4
:100E70002B00002029000020B802424294000020EC
:100E800000000140C8630864A84948724FF47A70B2
:100E9000FFF7F7F9A648FFF7EFF90920A549087011
:100EA00004E04FF4FA50FFF7CFF9AEE700BF33E0AC
:100EB00004E0FFF7BDF9FA2000F03EFFF9E71EE07D
:100EC0009D48008800F4004068B19848C079012826
:100ED00009D1002004E09949095C994A1154401C49
:100EE0000628F8DB00BF002000F09BFE9549087043
:100EF0000846007818B101208E49087000E0DFE74D
:100F000000BF09E005E09048428801888FA002F008
:100F100093FFF8E700BF00BFD8E42DE9F05F044677
:100F20000D4616461F46DDE90CABDDE90A890120B6
:100F30008E49086000208E49C1F8B8028D490870BA
:100F400004208D490870002C03DA401F8B4908806B
:100F500009E0002C03DD01208849088003E014B972
:100F6000002086490880002D04DA4FF0FF308349C5
:100F7000488009E0002D03DD01208049488003E01E
:100F800015B900207D4948807C480088642110FB09
:100F900001F06749486179484088642110FB01F0FD
:100FA0006349086101F11400FFF766F900207149F7
:100FB0000870032070490870704800884FF4C871A9
:100FC00010FB01F05A4948616C4840884FF4C871E1
:100FD00010FB01F05649086101F11400FFF74CF9CC
:100FE0000020644908700220634908706348008843
:100FF0004FF4C87110FB01F04D4948615F484088CB
:101000004FF4C87110FB01F04949086101F1140067
:10101000FFF732F90020574908700120564908703F
:101020005648B0F900004FF4617101FB104040498F
:1010300048615248B0F902004FF4617101FB105051
:101040003B49086101F11400FFF716F900204949F6
:101050000870012048490870484800884FF47A61B8
:1010600010FB01F03249486101F11400FFF704F967
:1010700000204049087002203F4908703F4800881E
:101080004FF4487110FB01F02949486101F1140047
:10109000FFF7F2F80020374908700320364908703E
:1010A0003648B0F900004FF4965101FB106020491A
:1010B000486101F11400FFF71CF9FA2000F03CFE32
:1010C000FA2000F039FE00202A49087002202A493F
:1010D000087007EB87001649886101F11800FFF7D7
:1010E000CBF81348C0F810801030FFF7C5F8002087
:1010F000204908700120204908700D48C0F814905C
:10110000C82000F019FEC82000F016FEC82000F02C
:1011100013FEC82000F010FE0548C0F810A00BEB2D
:101120008B0003498861BDE8F09F00009400002017
:10113000780000202C00002064000020AA0000207D
:101140003A000020410000202E000020616463303E
:101150002020202564202020616463312020202568
:1011600064202020200D0A2000000000B40242422A
:10117000000042422A000020280000202400002015
:10118000704700BFFEE700BFFEE700BFFEE700BFFD
:10119000FEE7704770477047704700000CB50020AD
:1011A000019000907648006840F4803074490860EF
:1011B00000BF7348006800F4003000900198401CA4
:1011C0000190009818B90198B0F5A04FF1D16C4882
:1011D000006800F4003010B10120009001E0002010
:1011E00000900098012846D165484030006840F0E2
:1011F00080506349403108606248006840F44040D4
:10120000604908605E48083000685D490831086040
:101210000846006840F4004008600846006840F452
:10122000A05008605848091F0860081F006840F077
:101230008070091F086000BF5148006800F000700E
:101240000028F9D040F20570504908604C48083039
:10125000006820F003004A49083108600846006829
:1012600040F00200086000BF45480830006800F008
:101270000C000828F8D10CBD10B54548006840F4B2
:101280007000434908603E48006840F001003C4956
:10129000086000203A4908310860394800683D4933
:1012A0000840374908603C48091D0860081F00686D
:1012B00020F48020091F0860002031490C310860AB
:1012C000FFF76CFF4FF0006031498039086010BDB6
:1012D00070B500200022022300240221284D083589
:1012E0002D6805F00C0020B1042806D0082834D160
:1012F00007E02A4D2A4E356033E02A4D284E3560EE
:101300002FE01F4D2D1D2D68C5F380541C4D2D1D44
:101310002D6805F03F0154B1224DB5FBF1F5184E93
:10132000361D3668C6F3881605FB06F209E01B4D2C
:10133000B5FBF1F5124E361D3668C6F3881605FB6F
:1013400006F20F4D2D1D2D68C5F301456D1C6B0078
:10135000B2FBF3F5124E356003E0104D104E3560D0
:1013600000BF00BF064D08352D68C5F303150E4EAE
:10137000705D0B4D2D68C540094E356070BD000095
:10138000003802400070004008544007003C024012
:1013900088ED00E0FFFFF6FE103000240024F4008A
:1013A0004400002000127A004800002030B58BB0C5
:1013B00004460D460121102002F0B6F902208DF8F6
:1013C000280000208DF82A004FF47060099000205A
:1013D0008DF82B0003208DF8290009A9824800F020
:1013E00089FE01220821804800F00FFF0122092117
:1013F0007D4800F00AFF01220A217B4800F005FF2A
:1014000001220B21784800F000FF0121084602F07C
:10141000E5F90020ADF82000ADF81A00ADF818503D
:101420008DF82200079406A9704801F0FEF96020AB
:10143000ADF804000120ADF806000020ADF808006A
:101440000390ADF810004FF48070ADF8140001A9BE
:10145000664801F07FFA0020039001A9634801F07B
:10146000B2FA0020039001A9604801F0F9FA0020C7
:10147000039001A95D4801F059FB01215B4801F08F
:101480005DFA0121594801F04AFE0BB030BD002041
:10149000564948638863C863086455490860091D54
:1014A0000860091D0860091D08605248B0F9000075
:1014B000002804DD5048B0F900004C4948634D480D
:1014C000B0F90000002804DA4B48B0F900004749A1
:1014D00088634848B0F90200002804DD4648B0F9A6
:1014E00002004249C8634348B0F90200002804DA08
:1014F0004148B0F902003D4908643E48B0F9040093
:10150000002804DD3C48B0F9040039490860394836
:10151000B0F90400002805DA3748B0F9040034496E
:10152000091D08603348B0F90600002805DD32487F
:10153000B0F906002E49083108602E48B0F90600BF
:10154000002805DA2C48B0F9060029490C3108605A
:1015500070477FB505460C460121202002F02DF989
:101560000295ADF804400020ADF80600ADF80C007F
:1015700001A9224801F059F9012211461F4801F042
:10158000F5FD01211D4801F0D9F937208DF8000043
:1015900003208DF8010001208DF802008DF8030072
:1015A000684600F0B6FC7FBD10B50121134801F07C
:1015B000F4FD012813D1082000F001FB1049088038
:1015C0000A2000F0FCFA0E4948800B2000F0F7FAE0
:1015D0000B4988800C2000F0F2FA0949C8800121EB
:1015E000064801F0EBFD10BD000002400000014084
:1015F00034040140180000200000002000140040C6
:101600002E0000201CB50121084602F08DF80121B2
:10161000042002F089F80121082002F085F8012158
:10162000102002F081F801208DF8040000208DF8D0
:10163000060003208DF8050001208DF80700C0206A
:1016400000906946154800F055FD4FF41C7000905D
:101650006946134800F04EFD4FF47F400090694604
:10166000104800F047FD4FF68070009069460E4824
:1016700000F040FDC021094800F0B8FD4FF41C7196
:10168000074800F0B3FD4FF47F41064800F0AEFD7F
:101690004FF68071044800F0A9FD1CBD0000024017
:1016A00000080240000C0240001002407FB50546D1
:1016B0000C460121102002F080F80295ADF804409C
:1016C0000020ADF80600ADF80C0001A9FB4801F0C0
:1016D000ACF801221146F94801F048FD0121F74814
:1016E00001F02CF936208DF8000003208DF8010060
:1016F00001208DF802008DF80300684600F009FC17
:101700007FBD7FB505460C460121022002F055F849
:101710000295ADF804400020ADF80600ADF80C00CD
:1017200001A9E74801F081F801221146E44801F0DF
:101730001DFD0121E24801F001F91D208DF8000096
:1017400003208DF8010001208DF802008DF80300C0
:10175000684600F0DEFB7FBD10B50121D84801F0DE
:101760001CFD01287ED1D7480078D74909788842E6
:1017700079D1D6480068002812DA0120D4490860DF
:10178000D448D0F8A00208B9012000E00020D049D8
:10179000091F0860CD480068401CCC4908601DE066
:1017A000CA480068002812DD0020C9490860C948FD
:1017B000D0F8A00208B9012000E00020C449091FA8
:1017C0000860C2480068401EC049086006E0BF4883
:1017D000006818B90020BE49091F0860BB4840686E
:1017E000002813DA0020BA4908310860B948D0F857
:1017F000A80208B9012000E00020B549091D0860D1
:10180000B2484068401CB14948601EE0AF4840689B
:10181000002813DD0120AE4908310860AD48D0F83A
:10182000A80208B9012000E00020A949091D0860AC
:10183000A6484068401EA549486006E0A3484068A5
:1018400018B90020A249091D0860A0488068002836
:1018500016DA00209E49103108609E48D0F8B00288
:1018600020B901E06BE065E0012000E0002098492C
:101870000C31086095488068401C944988601EE0DF
:1018800092488068002813DD0120914910310860DA
:101890009048D0F8B00208B9012000E000208C493F
:1018A0000C31086089488068401E8849886006E0DD
:1018B0008648806818B9002085490C310860834843
:1018C000C068002813DA0120814918310860814876
:1018D000D0F8B80208B9012000E000207C4914319A
:1018E00008607A48C068401C7849C8601EE07748A4
:1018F000C068002813DD002075491831086075485C
:10190000D0F8B80208B9012000E000207049143175
:1019100008606E48C068401E6C49C86006E06B48AD
:10192000C06818B900206A49143108600020654970
:10193000087004E063480078401C62490870012187
:101940005F4801F03BFC10BD10B501215B4801F080
:1019500024FC012870D15D488069002815DA002038
:101960005D4908605D49C1F894025B48001F00684A
:1019700008B9012000E000205749091F08605348BA
:101980008069401C5149886120E0504880690028E6
:1019900015DD0120504908605049C1F894024E48B5
:1019A000001F006808B9012000E000204A49091F13
:1019B000086046488069401E4449886106E0434803
:1019C000806918B900204449091F0860444800781C
:1019D0004449097888426FD13C480069002813DAED
:1019E00000203D49103908603F48D0F89C0208B9F2
:1019F000012000E0002038491439086033480069AC
:101A0000401C324908611FE030480069002814DD9D
:101A100001203149103908603348D0F89C0208B9D8
:101A2000012000E000202C49143908602748006993
:101A3000401E2649086107E067E02448006918B99C
:101A4000002025491439086020484069002817DA29
:101A5000012021490839086000202049C1F890027E
:101A60001D480C38006808B9012000E000201A4920
:101A70000C39086015484069401C144948613BE036
:101A800012484069002831DD0020134908390860F8
:101A900001201249C1F890020F480C38006808B9BB
:101AA000012000E000200C490C390860074840691B
:101AB000401E064948611FE022E00000001000407F
:101AC000000400402B0000202900002078000020A6
:101AD000A482414200804142B002424200004142A1
:101AE0002A000020280000200000424209484069E6
:101AF00010B900200849086000200849087004E077
:101B000006480078401C054908700121044801F08E
:101B100055FB10BD78000020A40242422A0000209C
:101B20000010004000B58DB00121022001F0FCFD45
:101B30000121042001F0F8FD0121080201F04EFE10
:101B400003200B908DF8300000208DF833000BA996
:101B5000264800F0CFFA07200B9003208DF83000C4
:101B600000208DF833000BA9214800F0C3FA0121B1
:101B7000080201F088FE00214FF4807001F083FE1E
:101B8000002007900A9009904FF48030089007A831
:101B900001F058FF002001908DF808008DF8090031
:101BA0000390059001208DF8180001A9114801F05B
:101BB0001AFF01210F4801F05CFF0DB000BD10B508
:101BC000044601231A4621460A4801F092FF0948BB
:101BD00001F0EBFF00BF0221064802F007F90028E0
:101BE000F9D0044802F01DF810BD000000040240C6
:101BF00000080240002001401CB50121102001F026
:101C000093FD0820009000208DF8040003208DF83B
:101C1000050001208DF807006946144800F06AFAB3
:101C20001CBD10B5044614B10120114908701048BC
:101C3000007888B108210D4800F0BEFA60B90A208A
:101C400000F07AF800200A4908700821074800F0DF
:101C5000B3FA48B9012010BD0821044800F0ACFADD
:101C6000012801D1024908700020F4E70010024069
:101C70005800002010B504466FF0040000F096F9FB
:101C8000E11704EB5171C1F3C701394A11701046D5
:101C9000007800EB4001C1EBC0104FF6FF7101EA84
:101CA000C0003449088010BD0146314A12784A43C9
:101CB0004FF0E0235A6100229A611A46126942F0FD
:101CC00001021A6100BF4FF0E022106900F001022A
:101CD0001AB100F48032002AF5D04FF0E0221269E8
:101CE00022F001024FF0E0231A6100229A6170474E
:101CF0000146204A12884A434FF0E0235A610022ED
:101D00009A611A46126942F001021A6100BF4FF04F
:101D1000E022106900F001021AB100F48032002ABA
:101D2000F5D04FF0E022126922F001024FF0E023DB
:101D30001A6100229A61704770B504464FF407702B
:101D400094FBF0F0C6B24FF4077094FBF0F100FB87
:101D5000114085B205E04FF40770FFF7C9FF701E10
:101D6000C6B2002EF7D115B12846FFF7C1FF70BDEE
:101D70005A0000205C00002000BF704700BF4E4AA0
:101D8000128802F04002002AF9D0C2B24A4B1B1D51
:101D90001A80704710B588B004460121084601F04A
:101DA000C3FC0121480401F008FD07220221434839
:101DB00000F02BFA07220321404800F026FA0C20FD
:101DC000069002208DF81C008DF81D0000208DF873
:101DD0001E0001208DF81F0006A9384800F08AF97E
:101DE00002940020ADF80C00ADF80E00ADF8100024
:101DF000ADF814000C20ADF8120002A92E4800F036
:101E0000A4FA01212C4800F028FB40212A4800F0C8
:101E10000CFC012240F22551274800F0D4FB26207B
:101E20008DF8040003208DF805008DF806000120D0
:101E30008DF8070001A800F06CF808B010BD10B5CF
:101E400040F225511C4800F0F9FB10B31A4800F08D
:101E500033FBC4B21A48008800F40040C8B91848DF
:101E6000008800F4804060B10A2C03D0002014499F
:101E7000088020E01248008840F4004010490880A3
:101E800019E00D2C06D10E48008840F480400C4922
:101E9000088010E00A480088C0F30D0009490C547E
:101EA00007480088401C0649088008460088C72863
:101EB00001DD0020088010BD004400400000024009
:101EC00064000020AA000020094880470948004714
:101ED000FEE7FEE7FEE7FEE7FEE7FEE7FEE7FEE7DA
:101EE000FEE7FEE704480549054A064B7047000037
:101EF0007912000889010008D8010020D8070020C5
:101F0000D8030020D803002032490143324A11602F
:101F1000704770B5002100230F22C4781CB32E4CEB
:101F2000246804F4E064C4F5E064C4F30721C1F15B
:101F30000404E3B20A4144789C40E1B2847814403E
:101F400021430C07210E254C05786155047804F0D7
:101F50001F050124AC4005786D11AD0005F1E025A9
:101F6000C5F8004109E0047804F01F050124AC40E5
:101F70001B4D0678761145F8264070BD194A0A4077
:101F80000243154B1B1F1A60704739B1124A121DCC
:101F900012680243104B1B1D1A6006E00E4A121D08
:101FA000126882430C4B1B1D1A607047042808D12D
:101FB0004FF0E021096941F004014FF0E022116186
:101FC00007E04FF0E021096921F004014FF0E02221
:101FD000116170470000FA050CED00E000E400E03C
:101FE00080E100E080FFFF1F10B50446984884425E
:101FF00008D10121084601F002FC0021012001F076
:10200000FEFB76E09348844208D10121022001F0D2
:10201000F6FB0021022001F0F2FB6AE08E488442C8
:1020200008D10121042001F0EAFB0021042001F085
:10203000E6FB5EE08948844208D10121082001F0D6
:10204000DEFB0021082001F0DAFB52E084488442E4
:1020500008D10121102001F0D2FB0021102001F055
:10206000CEFB46E07F48844208D10121202001F0C8
:10207000C6FB0021202001F0C2FB3AE07A488442EE
:1020800008D10121402001F0BAFB0021402001F0DD
:10209000B6FB2EE07548844208D10121802001F072
:1020A000AEFB0021802001F0AAFB22E070488442B0
:1020B00008D10121801501F0A2FB0021A01501F03B
:1020C0009EFB16E06B48844208D10121401501F0C7
:1020D00096FB0021601501F092FB0AE066488442FD
:1020E00007D10121001501F08AFB0021201501F024
:1020F00086FB10BDF0B50A4600210023002400BF76
:102100003DE0012505FA01F3156805EA03049C4248
:1021100034D105684F000326BE40B54305601579EC
:102120004E00B5400668354305601579012D02D093
:102130001579022D16D185684F000326BE40B543A0
:10214000856055794E00B5408668354385604568A1
:1021500001268E40B5434560456896798E40B6B2FB
:1021600035434560C5684F000326BE40B543C56092
:10217000D5794E00B540C6683543C560491C102965
:10218000BFD3F0BD4FF6FF710160002101714171B5
:102190008171C171704708B54FF480320092009A86
:1021A0000A430092009AC261C161009AC261C26989
:1021B0000092C269009208BD0246002013690B40DC
:1021C0000BB1012000E0002070470146086980B291
:1021D00070470246002053690B400BB1012000E01C
:1021E000002070470146486980B2704701837047FC
:1021F000418370470AB1018300E041837047416128
:10220000704742694A4042617047F0B5002300249C
:102210004D07ED0E02FA05F3CE1000F1200555F83A
:1022200026504E07F70E0F26BE40B543CF1000F1E3
:10223000200646F82750CE1000F1200555F826500C
:1022400045EA0304CE1000F1200545F82640F0BD14
:10225000000002400004024000080240000C02405E
:10226000001002400014024000180240001C02400E
:1022700000200240002402400028024010B504461D
:10228000FA48844208D10121102001F0FCFA002113
:10229000102001F0F8FA57E0F548844209D10121F5
:1022A000480401F0DFFA00214FF4003001F0DAFABF
:1022B0004AE0F048844209D10121880401F0D2FAB1
:1022C00000214FF4802001F0CDFA3DE0EA4884423D
:1022D00009D10121C80401F0C5FA00214FF4002002
:1022E00001F0C0FA30E0E548844209D10121080537
:1022F00001F0B8FA00214FF4801001F0B3FA23E0A6
:10230000DF48844208D10121202001F0BCFA0021DD
:10231000202001F0B8FA17E0DA48844209D10121FF
:10232000880701F09FFA00214FF0804001F09AFAEF
:102330000AE0D548844207D10121400501F092FA14
:102340000021600501F08EFA10BD2DE9FF4705461A
:102350000E460024A14600BFA046B08900B100BFD0
:102360002C8A24F44054F08804432C82AC8941F236
:102370000C608443B0883189084371890843044361
:10238000AC81AC8A24F44074B0890443AC826846C2
:1023900001F0F9F8B548854202D0B948854202D12A
:1023A000DDF80C9001E0DDF80890A88900F4004009
:1023B00040B109EBC90000EB091031684900B0FBDE
:1023C000F1F707E009EBC90000EB0910316889005B
:1023D000B0FBF1F76420B7FBF0F0040120096421A1
:1023E00001FB1078A88900F4004040B1322000EBD6
:1023F000C800B0FBF1F000F00700044308E0322011
:1024000000EB08106421B0FBF1F000F00F00044372
:102410002C81BDE8FF874FF41651016000218180B7
:10242000C18001810C21418100218181704710B55B
:1024300002460020108A20F470600B884C882343E9
:102440008C882343CC8823431843108210BD00217D
:10245000018041808180C180704721B1828942F42E
:102460000052828104E082894DF6FF731A40828116
:102470007047028B02F47F420283028B0A4302837D
:10248000704721B1828942F40042828103E082894F
:10249000C2F30E028281704721B1828A42F4006247
:1024A000828204E0828A4FF2FF731A408282704770
:1024B000C1F308028280704701468888C0F3080093
:1024C0007047028A4FF6F0731A400282028A0A436A
:1024D0000282704721B1828942F00202828104E0C7
:1024E00082894FF6FD731A408281704782894FF2CC
:1024F000FF731A40828182890A4382817047028A6F
:102500004FF6DF731A400282028A0A430282704742
:1025100021B1028A42F48042028204E0028A4BF630
:10252000FF731A4002827047818941F00101818165
:10253000704721B1828A42F00802828204E0828AD6
:102540004FF6F7731A4082827047028BD2B2028331
:10255000028B42EA01220283704721B1828A42F053
:102560002002828204E0828A4FF6DF731A40828260
:10257000704721B1828A42F01002828204E0828A8E
:102580004FF6EF731A4082827047828A4FF6FB73D0
:102590001A408282828A0A438282704721B1828AEB
:1025A00042F00202828204E0828A4FF6FD731A40F2
:1025B000828270471AB1838A0B43838202E0838A46
:1025C0008B4383827047F0B5034600240026002524
:1025D000002040F66A17B94200D100BF1846C1F387
:1025E000421401F01F06012707FA06F5012C01D15C
:1025F0000C3004E0022C01D1103000E014301AB18C
:1026000007682F43076002E00768AF430760F0BD2B
:1026100002460020B1F5007F00D100BF13880B40B7
:102620000BB1012000E00020704701F40072B2F508
:10263000007F00D100BFCA430280704770B50246D8
:10264000002400230025002040F66A16B14200D184
:1026500000BFC1F3421501F01F03012606FA03F380
:10266000012D13D19689334017E00000001001407E
:102670000044004000480040004C00400050004032
:102680000014014000780040007C0040022D02D17F
:10269000168A334001E0968A33400C12012606FA6E
:1026A00004F41688344013B10CB1012000E000207E
:1026B00070BD10B50022002340F66A14A14200D17B
:1026C00000BF0A1201249440A3B2DC43048010BD71
:1026D00010B50446FE48844208D10121084601F0A5
:1026E000D2F80021012001F0CEF89DE0B4F1804F36
:1026F00008D10121084601F0B5F80021012001F0C0
:10270000B1F891E0F348844208D10121022001F0A0
:10271000A9F80021022001F0A5F885E0EE488442E6
:1027200008D10121042001F09DF80021042001F0CE
:1027300099F879E0E948844208D10121082001F0A4
:1027400091F80021082001F08DF86DE0E448844202
:1027500008D10121102001F085F80021102001F09E
:1027600081F861E0DF48844208D10121202001F096
:1027700079F80021202001F075F855E0DA4884420C
:1027800008D10121022001F07EF80021022001F091
:102790007AF849E0D548844209D10121080401F0C2
:1027A00072F800214FF4803001F06DF83CE0D04821
:1027B000844209D10121480401F065F800214FF459
:1027C000003001F060F82FE0CA48844209D10121AD
:1027D000880401F058F800214FF4802001F053F8EC
:1027E00022E0C548844208D10121402001F03AF896
:1027F0000021402001F036F816E0C048844208D19C
:102800000121802001F02EF80021802001F02AF81B
:102810000AE0BB48844207D10121801501F022F86B
:102820000021A01501F01EF810BD00220288A84B5F
:1028300098420ED0AC4B98420BD0B0F1804F08D0EC
:10284000A44B984205D0A44B984202D0A34B984287
:1028500004D14FF68F731A404B881A43A04B98420D
:1028600007D0A04B984204D04FF6FF431A400B8983
:102870001A4302804B68C3620B880385944B9842CD
:1028800002D0994B984201D18B7A0386012383822F
:1028900070474FF0FF31416000210180018141808C
:1028A000817270470185828270470A460021018843
:1028B0004FF68F7319401143018070474162704792
:1028C000C16270470146486A70470146088D7047EB
:1028D00021B1028842F00202028004E002884FF631
:1028E000FD731A400280704721B1028842F0040251
:1028F000028004E002884FF6FB731A4002807047A2
:1029000021B1028842F08002028004E002884FF682
:102910007F731A400280704702884FF6F7731A409F
:10292000028002880A430280704702884FF6FF4304
:102930001A40028002880A430280704721B102884F
:1029400042F00102028004E002884FF6FE731A4052
:102950000280704770B5002400220023058C4FF6DA
:10296000FE7635400584028C8388048B4FF68F7584
:102970002C40B51E2C400D882C43751E2A408D8995
:102980002A434D882A43524DA84202D0564DA842B0
:1029900013D14FF6F7752A40CD892A434FF6FB75C0
:1029A0002A408D882A434FF6FF652B404FF6FF558E
:1029B0002B400D8A2B434D8A2B43838004838D68E3
:1029C0004563028470BD70B5002400220023058C8D
:1029D0004FF6EF7635400584028C8388048B48F6E9
:1029E000FF752C404FF6FF452C400D884FF6FF76C3
:1029F00006EA05252C434FF6DF752A408D8906EA45
:102A000005152A434D8806EA05152A43304DA8428C
:102A100002D0354DA8421DD14FF67F752A40CD8991
:102A20004FF6FF7606EA05152A434FF6BF752A4092
:102A30008D8806EA05152A434FF6FF352B404FF2E5
:102A4000FF752B400D8A06EA85052B434D8A06EA61
:102A500085052B43838004838D688563028470BD64
:102A600070B5002400220023058C4FF6FF66354028
:102A70000584028C8388848B4FF68F752C404FF62B
:102A8000FC752C400D882C434FF6FF552A408D894C
:102A90004FF6FF7606EA05252A434D8806EA052506
:102AA0002A430B4DA84202D00F4DA84238D14FF215
:102AB000FF752A40CD894FF6FF7606EA05252A43A1
:102AC0004FF6FF352A408D8806EA05252A4319E08E
:102AD000000001400004004000080040000C0040DD
:102AE000001000400014004000040140004001407C
:102AF000004401400048014000180040001C004014
:102B0000002000404EF6FF752B404DF6FF752B4020
:102B10000D8A06EA05152B434D8A06EA05152B4357
:102B2000838084838D68C563028470BD70B5002284
:102B300000230024058C4EF6FF7635400584038C77
:102B40008488828B48F6FF752A404FF6FF452A405D
:102B50000D884FF6FF7606EA05252A434DF6FF75E8
:102B60002B408D8906EA05352B434D8806EA05354D
:102B70002B43FE4DA84202D0FD4DA84208D14BF692
:102B8000FF752C400D8A4FF6FF7606EA85152C431B
:102B9000848082838D680564038470BD0021018078
:102BA0004180818081608181C18101824182704741
:102BB00070B50346002000241846183001258D40CA
:102BC000ACB21D8CA5431D8409B108290AD100EBC4
:102BD000610005684FF68F7635400560056815433E
:102BE00005600FE00D1FC5F34E052844056848F643
:102BF000FF763540056005684FF6FF7606EA022647
:102C00003543056070BD4163704781637047C163A0
:102C10007047016470470A460021018B4FF68F739D
:102C200019401143018370470A460021018B48F681
:102C3000FF7319404FF6FF7303EA02231943018320
:102C400070470A460021818B4FF68F73194011435C
:102C5000818370470A460021818B48F6FF73194033
:102C60004FF6FF7303EA02231943818370470A4634
:102C70000021018B4FF6F773194011430183704710
:102C80000A460021018B4FF2FF7319404FF6FF7384
:102C900003EA02231943018370470A460021818B0E
:102CA0004FF6F77319401143818370470A4600219C
:102CB000818B4FF2FF7319404FF6FF7303EA022333
:102CC0001943818370470A460021018B4FF6FB733D
:102CD00019401143018370470A460021018B4FF6CA
:102CE000FF3319404FF6FF7303EA022319430183B0
:102CF00070470A460021818B4FF6FB731940114340
:102D0000818370470A460021818B4FF6FF331940BB
:102D10004FF6FF7303EA02231943818370470A4683
:102D20000021018B4FF67F731940114301837047D7
:102D30000A460021018BC1F30E014FF6FF7303EA2F
:102D400002231943018370470A460021818B4FF605
:102D50007F7319401143818370470A460021818B9C
:102D6000C1F30E014FF6FF7303EA02231943818377
:102D700070470A460021018C4FF6FD73194011433C
:102D8000018470470A460021018C4FF6F773194001
:102D90001143018470470A460021018C4FF6DF730E
:102DA00019404FF6FF7303EA021319430184704779
:102DB0000A460021018C4FF67F7319404FF6FF73CE
:102DC00003EA02131943018470470A460021018C6B
:102DD0004FF6FF5319404FF6FF7303EA02231943DE
:102DE000018470470A460021018C4FF2FF7319409D
:102DF0004FF6FF7303EA02231943018470470A4622
:102E00000021018C4DF6FF7319404FF6FF7303EA62
:102E1000023319430184704730B5002301248C40EC
:102E2000A3B2048C9C430484048C02FA01F5ADB275
:102E30002C43048430BD30B5002304248C40A3B25D
:102E4000048C9C430484048C02FA01F5ADB22C433B
:102E5000048430BD828B4FF2FF331A408283828B11
:102E60004FF6FF7303EA01231A4382837047F0B5DC
:102E70000C461546002100220026078C4EF6FF7CEA
:102E800007EA0C070784818B028C4FF6FF7707EA6D
:102E9000043640F6FF4739404FF6FF7707EA05272B
:102EA00039434FF6FF7707EA0337394345F6FF7793
:102EB0003A4046F480573A4381830284F0BD828BC6
:102EC0004FF6F3731A408283828B0A4382837047E2
:102ED000F0B50C461546002100220026078C4FF65F
:102EE000FF6C07EA0C070784818B028C4FF6FF7793
:102EF00007EA04264FF60C7739404FF6FF7707EACA
:102F000003172F4339434FF2FF573A4046F4807777
:102F10003A4381830284F0BD028B4FF2FF331A40A3
:102F20000283028B4FF6FF7303EA01231A430283E5
:102F30007047F0B50C461546002100220026078C8C
:102F40004FF6EF7C07EA0C070784018B028C4FF6E3
:102F5000FF7707EA041640F6FF4739404FF6FF7740
:102F600007EA033739434FF6FF7703E000000140DB
:102F70000004014007EA052739434FF65F773A40DE
:102F800046F010073A4301830284F0BD028B4FF6EE
:102F9000F3731A400283028B0A4302837047F0B531
:102FA0000C46154600210022068C4FF6FE773E4067
:102FB0000684018B028C4FF60C7631407E1C06EAAB
:102FC00003162E4331434FF6F576324044F00106A6
:102FD000324301830284F0BD70B505460C4620885B
:102FE00050B92389A28861882846FFF7D8FFE18875
:102FF0002846FFF7CBFF25E0208804280AD1238943
:10300000A28861882846FFF794FFE1882846FFF7E9
:1030100083FF17E0208808280AD12389A2886188C5
:103020002846FFF755FFE1882846FFF748FF09E0EB
:103030002389A28861882846FFF719FFE18828467E
:10304000FFF708FF70BD00210180418001218180D0
:103050000021C180018170472DE9F04105460C46F1
:1030600000260127608808B9022600E00026A08813
:10307000012801D1022700E001272088A0B9238977
:10308000A28861882846FFF78AFFE1882846FFF773
:103090007DFF23893A4631462846FFF74AFFE188FB
:1030A0002846FFF739FF13E02389A2886188284664
:1030B000FFF73FFFE1882846FFF72EFF23893A46B6
:1030C00031462846FFF76BFFE1882846FFF75EFF91
:1030D000BDE8F0810146486B70470146886B704738
:1030E0000146C86B70470146086C70470A884B88D8
:1030F0001A438B881A43CB881A430B891A434B898E
:103100001A438B891A43A0F844207047002101809C
:1031100041808180C180018141818181704731B1CD
:10312000B0F8442042F40042A0F8442005E0B0F892
:103130004420C2F30E02A0F84420704721B18288D7
:1031400042F00402828004E082884FF6FB731A404A
:103150008280704721B1828842F00102828004E0BF
:1031600082884FF6FE731A40828070471AB18389B5
:103170000B43838102E083898B4383817047818283
:10318000704702460020138A0B400BB1012000E07B
:1031900000207047CA430282704730B502460020C3
:1031A00000230024158A05EA0103958905EA010434
:1031B00013B10CB1012000E0002030BDCA430282EF
:1031C000704741EA0203A0F8483070471AB183897A
:1031D0000B43838102E083898B438381704721B154
:1031E000828842F00802828004E082884FF6F773FA
:1031F0001A408280704701894FF6F87211400181B0
:1032000070470A46002101894FF68F731940114318
:103210000181704730B504460D4629462046FFF728
:10322000F0FF208940F00700208130BD2DE9F041FA
:1032300004460D4616461F46602D06D13B46012228
:1032400031462046FFF775FE05E03B460122314638
:103250002046FFF7A4FE29462046FFF7D2FF20892B
:1032600040F007002081BDE8F08130B50C46002118
:103270000189C9B24FF6FF7505EA032515432543B9
:103280002943018130BD2DE9F04105460E46174620
:103290009846002443463A4631462846FFF7E5FF64
:1032A0002C894FF6F870044044F007044FF68F70F5
:1032B000044044F070042C81BDE8F081F0B5044670
:1032C0000D4616461F463B46324629462046FFF726
:1032D000CCFF208940F480402081F0BD82884FF6E9
:1032E0008F731A40828082880A43828070470289E5
:1032F0004FF6F8731A40028102890A43028170472F
:1033000002894FF67F731A40028102890A430281C3
:103310007047F0B50C4615461E46002100220023DA
:103320000189028B038C4FF6F877394021434FF621
:10333000FC473A4040F201173A434FF6DD773B40F5
:103340004FF6FF7707EA06172F433B4301810283BD
:103350000384F0BD21B1828842F08002828004E0C3
:1033600082884FF67F731A4082807047A0F8501011
:1033700070470000F948006840F00100F749086014
:103380000020F64908310860F4480068F449084014
:10339000F2490860F348091D0860F348EF49843199
:1033A0000860F0481038091D0860EC48006820F4F7
:1033B0008020EA4908600020E8490C310860E749AC
:1033C0008C31086070470021E44A921C117011464C
:1033D0000870704710B501460022002300204A11F2
:1033E000012A02D1DD4C236808E0022A03D1DB4C1C
:1033F0007034236802E0D94C7434236801F01F0252
:10340000012494401C400CB1012000E0002010BDBC
:1034100038B5002000900024002500BF3120FFF7C0
:10342000D9FF05460098401C00900098B0F5A04FC9
:1034300001D0002DF2D03120FFF7CCFF08B10124DC
:1034400000E00024204638BD01460020C34A106831
:1034500020F0F80040EAC10010607047C3490860DE
:1034600070470021BD4A703211701170012802D0DE
:1034700004280AD104E00121B84A7032117005E035
:103480000521B64A7032117000E000BF00BF7047DE
:10349000B7490860704770B5049C41EA821501265F
:1034A000C6EB530645EA0645054345EA0465AB4EBF
:1034B000361D356070BDAD4908667047820142EA2D
:1034C0000172A64B84331A607047A849886670471A
:1034D00010B5830143EA016343EA02739F4C8834C9
:1034E000236010BDA14908677047A049C8647047B0
:1034F00002460020994B0833186820F0EC6042EA3D
:1035000001031843954B08331860704702460020AA
:10351000924B0833186820F0784042EA01031843C0
:103520008E4B083318607047014600208B4A0832E2
:10353000106820F003000843106070478748083087
:10354000006800F00C00704701460020834A0832F2
:10355000106820F0F000084310607047014600201A
:103560007E4A0832106820F4E0500843106070472B
:1035700001460020794A0832106820F4604040EA91
:10358000C10010607047F0B5002100220024022520
:1035900000260223714F08373F6807F00C0121B164
:1035A000042905D0082937D105E0724F076036E0BD
:1035B000714F076033E0694F3F1D3F68C7F3805686
:1035C000664F3F1D3F6807F03F036EB16A4FB7FB80
:1035D000F3F7DFF888C10CF1040CDCF800C0CCF381
:1035E000881C07FB0CF40CE0624FB7FBF3F7DFF825
:1035F0006CC10CF1040CDCF800C0CCF3881C07FB98
:103600000CF4564F3F1D3F68C7F301477F1C7D00F8
:10361000B4FBF5F7076002E0564F076000BF00BF3C
:103620004E4F08373F6807F0F0010909534F7A5CA5
:103630000768D7404760494F08373F6807F4E051B3
:10364000890A4E4F7A5C4768D7408760434F0837F6
:103650003F6807F46041490B484F7A5C4768D740A0
:10366000C760F0BD002100F44072B2F5407F0AD17E
:103670003A4A0832116821F4F811414A02401143D4
:10368000364A08321160354A70321268C0F30B03B3
:103690001A43324B70331A60704735494439086019
:1036A00070473349403908607047364908607047B1
:1036B00001460020294A8C32106820F01F004A1E63
:1036C0001043264A8C321060704701460020234A7E
:1036D0008C32106820F4F8504A1E40EA02201F4A3B
:1036E0008C3210607047014600201C4A8C321068F2
:1036F00020F4401008431060704701460020174A2C
:103700008C32106820F44000084310607047014676
:103710000020124A8C32106820F4403008431060B8
:10372000704719490860704739B10C4A3032126845
:1037300002430A4B30331A6006E0084A30321268FE
:103740008243064B30331A607047F9B1034A343272
:1037500012680243014B34331A601CE00038024007
:10376000FFFFF6EA1030002400300020000047423E
:10377000800E47420024F40000127A006600002008
:10378000FFFCFF0F5C014742E01147428F4A12687D
:1037900082438E4B1A60704739B18C4A121D1268F1
:1037A00002438A4B1B1D1A6006E0884A121D1268EC
:1037B0008243864B1B1D1A60704739B1834A0C3215
:1037C00012680243814B0C331A6006E07F4A0C32C8
:1037D000126882437D4B0C331A60704739B17B4AC3
:1037E000103212680243794B10331A6006E0774AB0
:1037F000103212688243754B10331A60704739B12A
:10380000724A243A12680243704B243B1A6006E065
:103810006E4A243A126882436C4B243B1A6070470C
:1038200039B16A4A203A12680243684B203B1A6059
:1038300006E0664A203A12688243644B203B1A60D5
:10384000704739B1614A1C3A126802435F4B1C3B16
:103850001A6006E05D4A1C3A126882435B4B1C3BCF
:103860001A60704739B1594A143A12680243574BEB
:10387000143B1A6006E0554A143A12688243534BCF
:10388000143B1A60704739B1504A103A126802432B
:103890004E4B103B1A6006E04C4A103A12688243C5
:1038A0004A4B103B1A60704739B1484A1C321268C3
:1038B0000243464B1C331A6006E0444A1C3212682D
:1038C0008243424B1C331A60704739B13F4A203261
:1038D000126802433D4B20331A6006E03B4A203217
:1038E00012688243394B20331A60704739B1374A26
:1038F000243212680243354B24331A6006E0334AFF
:10390000243212688243314B24331A60704739B134
:103910002E4A2C32126802432C4B2C331A6006E0DC
:103920002A4A2C3212688243284B2C331A60704783
:1039300039B1264A303212680243244B30331A60C0
:1039400006E0224A303212688243204B30331A603C
:103950007047012808D11D493C31096841F0080130
:103960001A4A3C32116007E018493C31096821F0DD
:103970000801164A3C321160704739B1134A273AA0
:1039800012780243114B273B1A7006E00F4A273A80
:10399000127882430D4B273B1A7070470B4840301A
:1039A000006840F080700949403108607047014666
:1039B0000020064A283A12680A400AB1012000E0B5
:1039C000002070470149263908707047343802409A
:1039D00010B501210802FFF756FF00214FF4807057
:1039E000FFF751FF10BD30B502460020002350689C
:1039F000F84C20400D790C6844EA052420435060BF
:103A00009068F54C2040D1E903542C438D682C4339
:103A10004D7944EA450420439060D06A20F4700058
:103A20000C7D641EE4B2234340EA0350D06230BDF3
:103A300000210160017141718160C160016101215A
:103A4000017570470021E54A1168E54A1140D0E947
:103A500000231A4383681A43C3681A431143E14A97
:103A6000C2F8041370470021016041608160C160A9
:103A7000704721B1826842F00102826003E08268EF
:103A800022F00102826070470A4600214168D64B4D
:103A900019401143416070474162826270470A4693
:103AA0000021416821F01F0111434160704738B186
:103AB000CA49096841F40001CA4AC2F8041306E081
:103AC000C649096821F40001C64AC2F804137047C8
:103AD00038B1C249096841F48001C24AC2F80413EE
:103AE00006E0BE49096821F48001BE4AC2F8041309
:103AF0007047F0B504460D4600200021092D11DD68
:103B0000E068A5F10A0606EB4607072606FA07F164
:103B10008843A5F10A0606EB460603FA06F10843B8
:103B2000E0600CE0206905EB4507072606FA07F17F
:103B3000884305EB450603FA06F108432061072A8E
:103B40000FDA606B561E06EB86071F2606FA07F192
:103B50008843561E06EB860605FA06F108436063A5
:103B600022E00D2A0FDA206BD61F06EB86071F26F0
:103B700006FA07F18843D61F06EB860605FA06F11A
:103B80000843206310E0E06AA2F10D0606EB860709
:103B90001F2606FA07F18843A2F10D0606EB8606FA
:103BA00005FA06F10843E062F0BD816841F080410A
:103BB00081607047014600208A6802F080420AB1A5
:103BC000012000E00020704721B1826842F4806249
:103BD000826003E0826822F480628260704721B1D3
:103BE000826842F00202826003E0826822F00202F0
:103BF0008260704710B50A4600210023416821F415
:103C00006041531E41EA4331416010BD21B1426819
:103C100042F40062426003E0426822F400624260C3
:103C200070470146C86C80B270476C48001D006840
:103C3000704721B1826842F48072826003E082683A
:103C400022F480728260704721B1826842F400726F
:103C5000826003E0826822F400728260704738B1AB
:103C60005E49096841F400515E4AC2F8041306E057
:103C70005A49096821F400515A4AC2F8041370479E
:103C8000F0B504461546002000220026092911DD62
:103C9000E068A1F10A0707EB470C072707FA0CF2C7
:103CA0009043A1F10A0707EB470703FA07F2104315
:103CB000E0600CE0206901EB410C072707FA0CF2E9
:103CC000904301EB410703FA07F210432061A06B18
:103CD000C0F30156EF1C06F1010CA7EB0C0707EB34
:103CE000870C1F2707FA0CF29043EF1C06F1010C1A
:103CF000A7EB0C0707EB870701FA07F21043A06355
:103D0000F0BD10B50A4600210023816B21F440115B
:103D1000531E41EA0351816310BD08B5002300938F
:103D20000090009B0B440093009B1A6008BD0A465C
:103D30000021816821F470211143816070470A4697
:103D40000021816821F4401111438160704781682E
:103D500041F4800181607047014600208A6802F4C6
:103D600080020AB1012000E00020704721B14268C2
:103D700042F48062426003E0426822F48062426062
:103D8000704721B1426842F48052426003E04268C9
:103D900022F480524260704708B50246002000902D
:103DA000009201F12800009B1844009000980068E0
:103DB00080B208BD10B50B460021D9B2012404FA27
:103DC00001F11AB144680C43446002E044688C433A
:103DD000446010BDFFFEFFFCFDF7FFC0042301405F
:103DE000E030FCFF00200140FFFD3FFF02460020C5
:103DF00013680B400BB1012000E000207047CA435C
:103E00000260704770B502460020002300240B12A8
:103E1000556801268E4005EA060415681D4015B157
:103E20000CB1012000E0002070BD00220A12D34333
:103E300003607047704700000FB4044910B503AA2F
:103E4000029800F0D3F810BC5DF814FB600000206D
:103E50002DE9F0410E460446002020622046E1682C
:103E6000884730B3252805D0D4E901219047206A3E
:103E7000401CF2E7E168204600278847050018D07B
:103E8000A5F14100192802D820354FF400673246C9
:103E9000294620462760FCF7B1F940B1012804D03B
:103EA000F61D26F007060836D8E7361DD6E7284661
:103EB000DAE7206ABDE8F0812DE9F04106460024EA
:103EC00010687529314616A510D0AFF30080002880
:103ED00002DA404213A507E031688A0701D512A52E
:103EE00002E0490704D511A5012401E0AFF30080E9
:103EF00000210A2206F1240709E0B0FBF2FCB0FB26
:103F0000F2F302FB1C00303078541846491C00289C
:103F1000F3D123462A463046BDE8F04100F00CB804
:103F2000000000002D0000002B0000002000000019
:103F300070477047704770472DE9F0470D46994626
:103F40009246044600F124080168880604D5E06919
:103F500021F01001216000E00120A84201DD471B93
:103F600000E00027A1697A1902EB0900081AA06194
:103F70002078C00602D42046AFF30080002608E077
:103F8000D4E901211AF806009047206A401C761CEB
:103F900020624E45F4DB2078C0060AD52046AFF3F8
:103FA000008006E0D4E9012130209047206A401CBF
:103FB0002062381EA7F10107F4DC07E0D4E90121F3
:103FC00018F805009047206A401C2062281EA5F1C1
:103FD0000105F3DC2046AFF300802078000602D50F
:103FE0000220BDE8F0870120FBE70000074B70B519
:103FF0000D467B4400F011F80446284600F020F8F6
:1040000010B14FF0FF3070BD204670BD87DDFFFF5F
:1040100001694A1C02610878704700B58FB0CDE98C
:1040200001310021059105497944CDE9031011467C
:104030006846FFF70DFF0FB000BD0000E5FFFFFF72
:10404000007B00F080007047754600F02BF8AE460C
:1040500005006946534620F00700854618B020B594
:10406000FDF740FFBDE820404FF000064FF000078D
:104070004FF000084FF0000B21F00701AC46ACE810
:10408000C009ACE8C009ACE8C009ACE8C0098D467D
:10409000704710B50446AFF300802046BDE81040DD
:1040A000FCF7C0B800487047740100204FF0407022
:1040B000E1EE100A70470000D84000080000002020
:1040C00078000000C401000850410008780000207A
:1040D00060070000E0010008000000000000000090
:1040E00000000000000000000000000000000000D0
:1040F00000000000000000000000000000000000C0
:10410000030300000A00E803E803E803E8030000F3
:10411000000034363532313300000000007A030AE3
:104120000000000000000000010203040607080967
:10413000010000000000000000000000000000007E
:10414000000001020304010203040607080900003D
:040000050800018965
:00000001FF
